:020000040800F2
:10000000A8180020B50200080D24000805240008E7
:1000100009240008291F00083131000800000000F1
:10002000000000000000000000000000C7020008FF
:10003000C902000800000000CB0200085D2D000886
:10004000CF020008CF020008CF020008CF0200084C
:10005000CF020008CF020008CF020008CF0200083C
:10006000CF020008CF020008CF020008CF0200082C
:10007000CF020008CF020008CF020008CF0200081C
:10008000CF020008CF020008CF020008CF0200080C
:10009000CF020008CF020008CF020008CF020008FC
:1000A000CF020008CF020008CF020008CF020008EC
:1000B000CF020008C92E0008CF020008CF020008B6
:1000C000CF020008CF020008CF020008CF020008CC
:1000D000CF020008812F0008F92F000885300008A2
:1000E000CF020008CF020008CF020008CF020008AC
:1000F000CF020008CF020008CF020008CF0200089C
:10010000CF020008CF020008CF020008CF0200088B
:10011000CF020008CF020008592F0008CF020008C4
:10012000CF020008CF020008CF020008CF0200086B
:10013000CF020008CF020008CF020008CF0200085B
:10014000CF020008CF020008CF020008CF0200084B
:10015000CF020008CF020008CF020008CF0200083B
:10016000CF020008CF020008CF020008CF0200082B
:10017000CF020008CF020008CF02000800000000F4
:10018000CF020008CF02000800F002F800F082F869
:1001900014A696E8000CB244B344DA4501D100F04D
:1001A00079F8BAE80F000FA696E83000A5EB040531
:1001B00004EB0607AAEB0704A7F101074FEA1515A0
:1001C0004FEA3414A4F10104AC4201D300F062F808
:1001D00013F0010F18BFFB1A43F0010300F001F800
:1001E000DBE718476C8400008C8400000A4410F898
:1001F000014B14F00F0508BF10F8015B240908BF7C
:1002000010F8014B6D1E05D010F8013B6D1E01F872
:10021000013BF9D1641E03D0641E01F8015BFBD1E0
:100220009142E4D37047000070470000002300248F
:1002300000250026103A28BF78C1FBD8520728BFF6
:1002400030C148BF0B607047662906F02B836429D4
:1002500000F01681782900F04F81732900F07B8629
:10026000002070471FB506F008FB9DE8030000F072
:10027000A7FB00F00DFF04000020002105F0A8FE00
:10028000401C60600020002105F08CFEE0601FBD76
:1002900010B510BD01F054F81146FFF7E3FF03F06D
:1002A0007BFF01F0FDFA03B4FFF7F2FF03BC03F09C
:1002B00051FB00000948804709480047FEE7FEE778
:1002C000FEE7FEE7FEE7FEE7FEE7FEE7FEE7FEE706
:1002D00004480549054A064B70470000712D000887
:1002E00089010008A8100020A8180020A8140020E8
:1002F000A814002070B5064600F042FB056806F120
:100300000B0020F00704B4429CBF002070BD2B46B8
:100310006A68BAB11068A04210D304F1080188429B
:100320003CBF5068586007D351681019416011688C
:10033000091B016058601460101D70BD134652689F
:10034000002AE7D12146284600F026FB0028DED10E
:1003500070BD70B50446051F00F012FB0068002C4C
:1003600014BF446870BD002C18BFAC423CBF20468F
:100370006468F8D301680A18AA4218BF456003D11F
:100380002A6805461144016028684119A1421CBF32
:100390006C6070BD6168696021680844286070BD48
:1003A0000FB4044910B503AA029800F0D9FD10BC9F
:1003B0005DF814FB780A00200FB41CB5074B06AAA1
:1003C0007B4469460090059800F09BFD002069463B
:1003D00000F0AAFD1CBC5DF814FB0000650B0000DA
:1003E00070B5044685690068C10601D5302600E075
:1003F0002026C00707D070BDD4E9012130469047C0
:10040000206A401C20626D1EF6D570BD70B5044692
:1004100085690078C00707D170BDD4E9012120208B
:100420009047206A401C20626D1EF6D570BD70B5E5
:100430000C460546012A05D02878800600D5EA69D1
:10044000002302E0012305E05B1C934202D2E05C42
:100450000028F9D1A869E618C01AA861286A1844CA
:1004600028622846FFF7BCFF04E0D5E9012114F813
:10047000010B9047B442F8D32846FFF7C7FF70BD81
:100480002DE9F0410646002410687529314616A56D
:1004900010D0AFF30080002802DA404213A507E035
:1004A00031688A0701D512A502E0490704D511A5D4
:1004B000012401E0AFF3008000210A2206F12407A5
:1004C00009E0B0FBF2FCB0FBF2F302FB1C003030A1
:1004D00078541846491C0028F3D123462A46304652
:1004E000BDE8F04100F0A1BA000000002D000000BE
:1004F0002B0000002000000070B504460D46214688
:100500001068AFF300802188090502D50F4A7A44AC
:1005100002E00E4A7A440E32002104F1240305E081
:1005200000F00F060009965D5E54491C0028F7D1C3
:1005300020780023000704D5702D02D009B10223D2
:1005400011322046BDE8704000F06FBA926400009E
:100550002DE9F05F894604464FF0000ADFF874B1D8
:10056000FB44C0F820A02046E1688847002874D0EA
:10057000252806D0D4E901219047206A401C20623A
:10058000F1E700265F462046E168884720280546B7
:1005900007DB312D05D2781910F8200C08B106437D
:1005A000F1E7B00701D526F00406C4F81CA0002727
:1005B000C4F818A02A2D09D0284605F0A4FC38B3A9
:1005C00004EB8708303DC8F8185019E059F8041BAF
:1005D000204604EB87029161E1688847012F0546B8
:1005E00018D1E069002820DA26F020061DE0D8F8AE
:1005F000180000EB800005EB40003038C8F8180008
:100600002046E1688847054605F07DFC0028EED1CC
:10061000012F0AD02E2D08D12046E16888477F1C83
:100620000546022F46F02006C4DBA069002803DA45
:10063000404246F00106A061F00701D026F0100606
:100640006C2D0BD0682D09D04C2D39D06A2D35D0AA
:10065000742D35D07A2D33D016E038E0E1682F467E
:1006600020468847B842054609D16C2F26D04FF462
:100670008060E168064320468847054604E06C2F09
:100680001AD04FF4807006430DB3A5F1410019282C
:1006900002D8203546F400664A46294620462660A0
:1006A0004E46FFF7D1FD80B101280BD0F61D26F094
:1006B000070000F1080956E74020E4E78020D8E76A
:1006C0000020D6E706F104094DE7284652E7206AE4
:1006D000BDE8F09F68640000014903F009BC000018
:1006E000780A002010B5044603E003F001FC401C2A
:1006F00009D014F8010B05490028F6D1BDE81040D7
:100700000A2003F0F5BB4FF0FF3010BD780A00203F
:10071000014A00F08FBC000000000020401ECAB259
:1007200010F8011F8A4202D00029F9D10020704739
:1007300030B503461D781DB10A4603E0AC4201D135
:10074000181A30BD12F8014B002CF7D15B1CF1E7F1
:1007500030B505460B462A4613F8014B12F8010B3B
:1007600008B1A042F8D01CB1002802D06D1CF1E7FE
:10077000284630BD40EA0103024630B59B0710D140
:100780004FF0013400E008C208C91D1B9D4315EA63
:10079000C41FF8D013F0FF0102F8011B0DD01B0A93
:1007A000F8E711F8013B002B02F8013B05D011F8E6
:1007B000013B002B02F8013BF3D130BD10B5431CC7
:1007C00002E010F8011B71B18107FAD14FF001323C
:1007D00002C88C1A8C4314EAC211F9D0C01A0A0656
:1007E00003D0C01E10BDC01A10BD0A0401D0801E67
:1007F00010BD0902FCD0401E10BD032A40F230801B
:1008000010F0030C00F0158011F8013BBCF1020F51
:10081000624498BF11F801CB00F8013B38BF11F8D2
:10082000013BA2F1040298BF00F801CB38BF00F8E9
:10083000013B11F0030300F02580083AC0F0088066
:1008400051F8043B083A51F804CBA0E80810F5E74A
:10085000121D5CBF51F8043B40F8043BAFF300802D
:10086000D20724BF11F8013B11F801CB48BF11F8A2
:10087000012B24BF00F8013B00F801CB48BF00F872
:10088000012B704710B5203AC0F00B80B1E818502A
:10089000A0E81850B1E81850A0E81850203ABFF46A
:1008A000F5AF5FEA027C24BFB1E81850A0E8185009
:1008B00044BF18C918C0BDE810405FEA827C24BF5D
:1008C00051F8043B40F8043B08BF7047D20728BFEB
:1008D00031F8023B48BF11F8012B28BF20F8023B3A
:1008E00048BF00F8012B70474FF000020429C0F008
:1008F000128010F0030C00F01B80CCF1040CBCF152
:10090000020F18BF00F8012BA8BF20F8022BA1EBA3
:100910000C0100F00DB85FEAC17C24BF00F8012B88
:1009200000F8012B48BF00F8012B70474FF0000280
:1009300000B5134694469646203922BFA0E80C50D5
:10094000A0E80C50B1F12001BFF4F7AF090728BFB0
:10095000A0E80C5048BF0CC05DF804EB890028BF2C
:1009600040F8042B08BF704748BF20F8022B11F055
:10097000804F18BF00F8012B7047704770477047D1
:10098000004870479002002000487047880200200D
:10099000704770477047704738B504460A460020D4
:1009A0006946AFF30080002808BF38BD02460099B1
:1009B000204600F071FB012038BD012000F0AABCE8
:1009C000F8B5AFF30080054600200C460C2000BFB0
:1009D0000646A819A0420DD9324669460020AFF359
:1009E0000080070008BF00F095FC0098A04218BFE7
:1009F0000546C419FFF7C4FF05600746F01D20F047
:100A000007004619284600F00AF8B44208BFF8BDAE
:100A1000A21B31463868BDE8F84000F03DBB00211C
:100A20000160416070470C2070472DE9F0470D468A
:100A300099469246044600F124080168880604D5C8
:100A4000E06921F01001216000E00120A84201DDF1
:100A5000471B00E00027A1697A1902EB0900081A78
:100A6000A0612078C00602D42046FFF7B9FC00261A
:100A700008E0D4E901211AF806009047206A401CDA
:100A8000761C20624E45F4DB2078C0060AD520464D
:100A9000FFF7A6FC06E0D4E9012130209047206A48
:100AA000401C2062381EA7F10107F4DC07E0D4E9FE
:100AB000012118F805009047206A401C2062281E7A
:100AC000A5F10105F3DC2046FFF7A0FC2078000625
:100AD00002D50220BDE8F0870120FBE72DE9FF4F9A
:100AE0000C461E464FF0FF378BB0D2E90001DDF80F
:100AF00060800A908A46C1F30A5505B93D46002137
:100B000008464FF00000BAF1000F00F4400005DA8B
:100B100000EB80004FF4400101EA50004FEA905989
:100B2000B9F1010F00DDB9460A9850EA4A000ED02B
:100B300044F61050A5F2FF3545432F14B8F1000FCD
:100B40001ED07542291E1EDDC9F100021CE0B8F15D
:100B5000010F4FF0000001D0302103E0F24305E027
:100B60002154401CB042FBDB3046002200212154BE
:100B70000B99C1F80880C1E900200FB0BDE8F08FE3
:100B8000BD1B6D1CDEE74A4600DA694206A800F08C
:100B90004BFB06AB93E8070003AB83E80700504626
:100BA0000A9904F039FC8DE80700A0F500501F38C1
:100BB00000900398002D0ADD42F21F014A460844C6
:100BC000002303A90390684604F0E4FE09E0A0F5C1
:100BD00000504A461F38002303A90390684604F0DA
:100BE00003FF8DE807000004000C03D04FF0FF3036
:100BF000410800E01046B8F1000F03D00022009237
:100C000015461EE0751E05D400F060FA30326255BC
:100C10006D1EF9D5B3460122084302D000227F1C85
:100C200004E02078302801D100227F1E002A099795
:100C300084D01DE0112D07DA00F048FA30326255F9
:100C40006D1C50EA0102F5D1084302D00098C8B1EA
:100C50000EE00021681E05E0235C625C63542254B0
:100C6000401E491C8142F7DBAB46A81B401E099081
:100C7000002004F80B000B98099AC0F80880C0E91E
:100C8000002B7AE711264FF0000857E72DE9F04FC7
:100C900088460446D21D22F0070191B0D1E9000137
:100CA000CDE90A0104F0ECFF02460B98C00F01D019
:100CB0002D2007E02068810701D52B2002E02021AC
:100CC00001EAC000032A099001D0072A05DB034688
:100CD0004146204600F048FA0BE12078800601D515
:100CE000E06900E00620B8F1650F814606D0B8F152
:100CF000660F18D0B8F1670F70D131E00020B9F15C
:100D0000110F009001DB112301E009F101030AAA90
:100D100001A90CA8FFF7E2FEDDE90C70002609F13D
:100D20000105834647E001204B4600904FF0004705
:100D30000AAA01A90CA8FFF7D1FEDDE90DB00C99B4
:100D40005D46002610B909F101000D18B9EB050048
:100D500003D4C0F1FF3609F10105A5EB09002BE032
:100D6000B9F1010F01DA4FF001090020B9F1110FBB
:100D70000090484601DD112300E003460AAA01A9BC
:100D80000CA8FFF7ABFEDDE90C704D46002683464C
:100D9000207800070AD4AB4500DA5D4601A8012D92
:100DA00004DD411911F8011C302907D04F4502DA42
:100DB00017F1040F04DA012082460FE06D1EEEE702
:100DC000002F02DCED1B3E4403E0781CA84200DD4E
:100DD0007D1CB81B00F1010A4FF000472078000786
:100DE00003D4AA4501DB4FF0FF3A0021B7F1004FD1
:100DF0000DF143088DF8431024D002202B23002F3F
:100E000001DA7F422D230A21021EA0F1010000DC3D
:100E10005FB197FBF1FC97FBF1F201FB1C7C1746DD
:100E20000CF1300C08F801CDEEE7A8F101000370D9
:100E30002188090501D5452100E06521A0F10108BF
:100E400000F8011C09980FA9A1EB0807FF1D00B1CC
:100E50000120411901EBEA70A1693844081A401ECB
:100E6000A0612078C00602D42046FFF7B9FA09989D
:100E700028B1D4E901219047206A401C20622078E3
:100E8000C00622D52046FFF7ABFA1EE0002E04DB99
:100E9000B34502DD01A8805D00E03020D4E90121E6
:100EA0009047206A401C2062761CAAF101005FEA8C
:100EB000000A0AD100F0ECF8C0680168405CD4E98F
:100EC00001219047206A401C2062281EA5F10105DF
:100ED000DCDC07E0D4E9012118F8010B9047206A17
:100EE000401C2062381EA7F10107F3DC2046FFF703
:100EF0008DFA032011B041E601694A1C02610878AD
:100F0000704700B58FB0CDE9013100210591054949
:100F10007944CDE9031011466846FFF719FB0FB07D
:100F200000BD0000E5FFFFFF0A6802F8010B0A6040
:100F3000704710B5436913B1AFF3008001E0FFF7CC
:100F400076FA012010BD127800F124010A70002207
:100F50004A700122EDE711684FF0FF32E9E7000027
:100F6000074B70B50D467B44FFF7CBFF0446284680
:100F700000F0CCF910B14FF0FF3070BD204670BDCD
:100F8000872F00000FB40B0010B54FF000048AB09B
:100F90000FA900910E99CC60234C7C44234A7A44DB
:100FA000CDE9064200D004236FF00042CDE90132C2
:100FB0001F4A7A446B4608920246002005F0D4FC92
:100FC0000AB010BC5DF814FBF0B507464FF0FF30D7
:100FD0001E4615460C463B4685B06A460091CDE953
:100FE000010131460020049004A8FFF7CBFF0499CB
:100FF0000346601825B109B1024600E022462A6086
:1010000000290ED0002B02DD0099814209D03B4619
:101010006A463146001B0094CDE9010404A8FFF79D
:10102000B1FF05B0F0BD00004B02000065020000FA
:10103000A10100002DE9F04115460E46040002D141
:101040002C6804B90BA4204600F06BF90444207806
:1010500070B1274631463846FFF76AFB04442078D2
:1010600010B1002004F8010B38462C60BDE8F08177
:101070000027F9E7000000000048704788020020C0
:1010800010B500F005F8001D10BD00BF454F000071
:1010900000487047A8020020034640688C4600289C
:1010A00018BF88423CBF03464068F8D3186818440C
:1010B000884207D00CF1030020F00700001D411A00
:1010C000521A0146081D0A60FFF743B930B5B0F166
:1010D0000A0271F100034FEA900E4EEA817EB0EBF6
:1010E0000E0061EB91014FEA101E4EEA017E10EBFB
:1010F0000E0041EB11114FEA102E4EEA016E10EB7B
:101100000E0041EB11214FEA104E4EEA014E10EB5A
:101110000E0041EB1141401841F100014FEAD000AF
:1011200040EA41704FEAD1014FEA810444EA9074E9
:1011300010EB800544EB01046D1944EB0404521BD1
:10114000A3414FF0000348BF0A3200D530BD401C18
:1011500041F1000130BD10B50446FFF791FF006872
:10116000005D00F0010010BD2DE9F0411F4604466E
:1011700003260168072A01F4006004DB08B116A504
:1011800005E016A503E008B115A500E015A521F0BE
:1011900010002060A069C01EA0610FB1401EA061B8
:1011A0002046FFF71DF94FB1D4E901213846904799
:1011B000206A401C2062C01C206206E0206AFAE718
:1011C000D4E9012115F8010B9047761EF8D220468C
:1011D000FFF71CF9BDE8F0814E414E006E616E00D4
:1011E000494E4600696E6600426842B1016811F8D6
:1011F000013B23B1521EC0E900121846704701217D
:10120000C160881E704742685AB1C368016843B91B
:1012100083688B4205D0491E521CC0E90012002091
:1012200070474FF0FF3070472DE9F0478146164672
:101230008AB0354878440DC88DE80D0032487844AE
:10124000801C03AC0DC884E80D0041F69B300844B7
:10125000372190FBF1F290FBF1F5A5F1800501FB40
:1012600012041B3C02D56442012000E00020DFF89C
:1012700098A080460027FA44AAF1BE0A0EE0E007D3
:101280000AD03246684607EB470101230AEB810189
:1012900004F0AAFB8DE8070064107F1C002CEED13F
:1012A000194F7F44AE3F19E0E80715D007EB041053
:1012B0000DF1180A90E80E008AE80E00C068F042AE
:1012C00001D1981908903246012306A903A804F019
:1012D0008BFB03AB83E807006D10641C002DE3D18A
:1012E0004FF0010332466946B8F1000F03A802D05F
:1012F00004F050FB01E004F077FBC9E90001C9F8F4
:1013000008200AB0BDE8F08724580000007B00F0F8
:101310008000704710B500F0D1FABDE8104000F031
:10132000C8BA30B503461D783DB10A4612F8014BE4
:101330001CB1AC42FAD15B1CF5E7181A30BD7047FE
:101340007546FFF799FEAE4605006946534620F004
:101350000700854618B020B5FEF7BAFFBDE820406B
:101360004FF000064FF000074FF000084FF0000B61
:10137000AC46ACE8C009ACE8C009ACE8C009ACE8D0
:10138000C00921F007018D4670473A2800D2303855
:1013900020F02002412A01D3A2F13700884201D374
:1013A0004FF0FF30704700002DE9FF4F06468BB02D
:1013B0000878FF2806D0491C2D2805D000244FF0BE
:1013C000000908E000200CE00124F8E709EB89039C
:1013D000491C00EB43090878FF28F7D114B1C9F183
:1013E00000008146107800252C46AA4629462D2863
:1013F00001D02B2804D1521C2D2813D00020824666
:101400008B461078FF280FD04FF0000C0A21521C99
:10141000A5FB017804FB018105FB0C11C5194BEB01
:101420000104EEE70120EAE7002108464FF0000042
:10143000BAF1000F02D000EB80004008C0F38157E2
:10144000012F01DD4FF0FF370E9955EA040009EB3B
:1014500001080BD04FF0020918F5FA7F16DA4FEAAF
:10146000CA70002F706008DD012007E04FEACA70E3
:10147000C6E900B00FB0BDE8F08F00203060FFF784
:1014800083FAC0F800901821084616E0B8F5FA7FF4
:1014900018DD002F02DAF748784401E0F648784476
:1014A000D0E90010C6E9001040EACA707060FFF78A
:1014B0006BFAC0F80090142108460FB0BDE8F04F59
:1014C00005F0EDB9002108464FF00000B8F1000129
:1014D000099002DAC7F1000200E03A4601DAC8F1E9
:1014E000000106A8FFF7A0FE06AB93E8070003ABD8
:1014F00083E8070044F23E005BEA0401009058468E
:1015000004D144F21E012C465D460091210C0904D1
:10151000014306D10099240444EA15442D041039EE
:10152000009104F07F41014306D10099240244EA6E
:1015300015642D020839009104F07041014306D171
:101540000099240144EA15742D01091F009104F04B
:101550004041014306D10099A40044EA9574AD00CE
:10156000891E009104F00041084304D100986D19D0
:101570006441401E00904FF001033A466846B8F1BE
:10158000000FCDE9014503A902DD04F042FA01E0B4
:1015900004F015FABAF1000F04460D4601D084F0AC
:1015A0000044002108464FF00000099940F2FF77FF
:1015B000484010F00C0F07D124F00040284303D01E
:1015C000C4F30A50B84212D1FFF7DEF9C0F8009018
:1015D000C4F30A50B8420AD1A8487844D0E90010B0
:1015E000C6E9001004F000410843706042E7C6E914
:1015F00000543FE72DE9FF4F1F464FF0000A4FF020
:10160000FF38454691B0D7E90146CDF83CA0FFF739
:101610003FFDC0680168405C1090B96912986D1C6C
:101620008847396A814688470028F6D1B9F1FF3FDB
:101630000AD0002E24F4D06411DDB9F12B0F08D0AC
:10164000B9F12D0F0BD102E0404615B013E744F479
:101650008064B96912986D1C8847761E81466005C2
:1016600004A901D52D2000E02B20002E01F1010B53
:101670000DF130088DF810003FDDB9F1690F08D089
:10168000B9F1490F05D0B9F16E0F02D0B9F14E0F83
:101690001CD13B4601A8009580E85002DDE91212FA
:1016A0006FF0020005F064F9C11CCED10EE0B969FB
:1016B00012986D1C884781461398761E44F4007476
:1016C00005600F98401C002E0F9016DDB9F1300F09
:1016D000EDD0B9F1780F02D0B9F1580F0DD10F98B4
:1016E00001280AD13B46CDE90054DDE91212001F62
:1016F000029605F03BF9C11CA7D1109989453ED14E
:1017000044F0800406E01399681CAAF1010A44F42D
:1017100000740860B9696D1C1298761E88473028DD
:101720008146F0D02BE01099894505D1200603D4DD
:10173000761E44F0800418E0484604F0E4FB08B349
:10174000761E0DF123029345A9F1300044F4007494
:1017500006D20BF8010B200607D5AAF1010003E021
:10176000200602D40AF101008246A00502D5139991
:10177000681C0860B96912986D1C88478146002E64
:10178000D1DC53E0002E51DDB9F1650F02D0B9F183
:10179000450F4BD1A00549D5B9696D1C1298761E2D
:1017A00024F440748847002E81460CDD2B2804D099
:1017B000B9F12D0F07D144F48074B96912986D1CEA
:1017C0008847761E8146E00501D52D2100E02B21BA
:1017D00008F8011BCDF8008021E0761E0DF13901DB
:1017E000884544F400740CD2A9F1300010F0FF00D9
:1017F00088F8000002D10099884509D908F101084C
:1018000006E0E00501D51E4801E042F20F70824675
:10181000B96912986D1C8847814613980560002E9F
:1018200004DD484604F06FFB0028D6D1F969129810
:101830008847FF2053468BF8000088F800000020FE
:101840000A900B9004AA0CA90AA8FFF7ADFDA00509
:1018500002D46FF00100F8E614F0240F12D0E00774
:101860001CD13868DDE90A12031D3B600068C0E93D
:10187000001213E0DC710000CE71000092700000D5
:10188000F1D8FFFF0AA9684604F02AFBE00705D15A
:101890003868009A011D3960006802602846D4E665
:1018A00010B50446AFF300802046BDE81040FEF7B7
:1018B000FABC002801D002F04DB8704710B50128DD
:1018C00005D0002103A000F074F8012010BD09A18B
:1018D000F8E7000053494752544D454D3A204F75A3
:1018E00074206F662068656170206D656D6F727918
:1018F000000000003A2048656170206D656D6F72D0
:101900007920636F72727570746564000000000066
:1019100030B44FF0013C50F8042B51F8043BCCFAA2
:1019200052F4D51A20D1FCB950F8042B51F8043BDD
:10193000CCFA52F4D51A17D1B4B950F8042B51F897
:10194000043BCCFA52F4D51A0ED16CB950F8042BE2
:1019500051F8043BCCFA52F4D51A05D1002CDAD058
:1019600030BC4FF00000704729BAB1FA81F111F094
:101970001801D1F120008440F2D1CA40CB4012F0CE
:10198000FF0213F0FF0330BCD01A7047B2F12003FE
:101990000AD5C2F1200301FA02F120FA03F341EA69
:1019A000030100FA02F0704700FA03F14FF0000063
:1019B000704770B505460C460A2000E06D1C00F02B
:1019C00011F835B128780028F8D102E0641C00F045
:1019D00009F814B120780028F8D1BDE870400A2039
:1019E000AFF3008008B569468DF800000320ABBE58
:1019F00008BD10B5FEF7C8FF006810BD10B504465D
:101A0000FEF7C2FF046010BD2DE9FF4F1F464FF0E7
:101A10003C0987B04FF00042DDE9141001F10108E4
:101A2000DDF858A002EA405003900020059083465C
:101A3000054604460490B969461E08988847AAF1ED
:101A4000010A0290BAF1000F3BDD02982E2815D052
:101A50001021FFF79AFC00282EDB4FF0010B0599AF
:101A6000014317D0B9F1000F0BDB4A46C117FFF74E
:101A70008DFF05430C43A9F1040905E00120049002
:101A80000BE008B145F0010501200590049820B94C
:101A9000361D02E0049800B1361FB969089808F1B4
:101AA00001088847BBF1000FAAF1010A0290C9D0D2
:101AB0000999C1F80080C5E70298702808D050281D
:101AC00006D0F96908988847BBF1000F14D04FE0A1
:101AD000002002900120BBF1000F049009D0B969E9
:101AE000089808F101088847AAF10109B9F1000F27
:101AF00007DCF969089888476FF001000BB0BDE872
:101B0000F08F2B2804D02D280CD14FF0FF300490FB
:101B1000B969089808F101088847A9F10109B9F1E4
:101B2000000FE6DD411CE4D00A21FFF72EFC00285F
:101B3000DFDB029908F1010801EB810100EB4100B4
:101B40000290B969089888470A21FFF71EFC099A94
:101B5000A9F10109B9F1000FC2F8008001DD0028E8
:101B6000E7DAF969089888470499029800FB01664A
:101B700055EA040004D004F04041090002D006E018
:101B8000039898E0A40044EA9574AD00B61E04F0F2
:101B90000041080002D16D196441761E159810F0BD
:101BA000240F03D04FF00B095C4803E04FF02809E5
:101BB0006FF07D008246564507DAAAEB060189449C
:101BC000B9F1410F01DD4FF0410901200021A9F1D8
:101BD0000102FFF7DBFE024628400B462140084386
:101BE00001D0012100E00021501E029143F1FF319C
:101BF00028402140084301D0012000E00020029944
:101C0000834651EA0B014FD0002108464FF00000F7
:101C1000039900F4400039B100EB80004FF440011B
:101C200000EBD07001EA60008015012802DD4FF062
:101C3000FF3000E013D0401C36D0029860B3BBF1F7
:101C4000000F0CD14A4601200021FFF79FFE2840DB
:101C50002140084301D0012000E00020E0B1012034
:101C60004A460021FFF792FE034640190A466141A9
:101C70002D1A8C4111D3B9F1400F09DD159810F0E0
:101C8000240F02D0AAF1340603E0AAF1170600E0FF
:101C9000761C00254FF0004406E05B1E42F1FF3247
:101CA00020EA030521EA0204CAF10100B04206DA83
:101CB0001B49039808430190002000900EE0039A0E
:101CC000C4F3D321E80A0A43164940EA44500A43C0
:101CD0003146CDE90002684604F00BF9159810F082
:101CE000240F0BD01598C00715D13868DDE9001214
:101CF000031D3B600068C0E900120CE002A86946C1
:101D000004F0EEF81598C00705D13868029A011D55
:101D10003960006802604046F0E6000002FCFFFF08
:101D20000000F07F0000F03F2DE9FF4F92461D4676
:101D300085B04FF00041DDE9124BDDE914727F1EE2
:101D400001EA4B50414940F0FF4940EA01080021B7
:101D500022F020004928049102D04E2828D04CE0DF
:101D60003BA0012607C88DE80700A9690698641CF6
:101D700088477F1E014606D41DF8060018B121F0E1
:101D8000200181420BD0E96906988847032E34D0A0
:101D9000082E32D06FF0010009B0BDE8F08F761C3C
:101DA000032E01D0082EE0D1601CCAF80000DCE749
:101DB000A9690698641C88477F1E2AD420F0200059
:101DC000412826D1A9690698641C88477F1E20D423
:101DD00020F020004E281CD1A9690698641C884771
:101DE0007F1E48F4002849F48009CAF8004001D455
:101DF000282806D0E969069888475FEACB7012D098
:101E000022E0A9690698641C88477F1E01D4002837
:101E100003DAE96906988847BCE72928F1D1641CF0
:101E2000CAF80040E9E71BF0240F07D0286804999E
:101E3000031D2B600068C0E9001805E02868021D3A
:101E40002A600068C0F800902046A5E70000F07FF7
:101E5000494E46494E4954590000000010B54FF410
:101E6000406002F06DFD40F6014002F069FD40F671
:101E7000024002F065FD41F2081002F061FD4FF4EE
:101E8000003001F09DFD42F20004C4F2010404F5AB
:101E9000684003210022072302F082F801F0A6FD2A
:101EA000002001F053FE20460221012201F020FE15
:101EB00020464FF48071012201F01AFE20460021D5
:101EC00001F08AFD20460121032201F055FD204644
:101ED00000210A22032301F0C3FD204601210B2229
:101EE000032301F0BDFD204602210C22032301F053
:101EF000B7FD20460121002201F09AFD204601F0A5
:101F000087FD204601F07EFD204601F087FD01207F
:101F100001F020FF204601F01FFD20460121BDE811
:101F2000104001F0D7BD0000FEE70000017859B174
:101F300000210346002200BF0132197093B2C35C36
:101F4000002B10FA82F3F7D1017D002908BF7047FA
:101F500000210023002200BF0132C15410FA82F395
:101F60001B7D002B93B2F7D17047000010B540F6EF
:101F7000014002F0E5FC40F20044C4F202042046B5
:101F800001210122012302F00BF820460021022248
:101F9000012302F02FF820460121BDE8104001F096
:101FA000F1BF0000000000002DE9F0472DED028B8D
:101FB00040F20044C4F202044EF678482046012163
:101FC0000022CFF6FF7801F0DFFF132001F0C2FE00
:101FD00020460121012201F0D7FF142001F0E4FE88
:101FE000204600210122012301F0DAFF454600BF0F
:101FF0002046012101F0CEFF18B9002D05F10105A1
:10200000F6D145462046012101F0C4FF18B1002D4C
:1020100005F10105F6D100274FF0000900260CE07C
:10202000002D4FEA490006F1010618BF012540EADC
:10203000DA79282E45EA4A071FD0BA46454600BF3E
:102040002046012101F0A6FF18B9002D05F1010578
:10205000F6D11C2001F0A8FE2046012101F09AFFD4
:10206000054647462046012101F094FF0028D7D0BD
:10207000002F07F10107F5D1D2E720460121012207
:1020800001234FEA4A0601F08BFF2046002102227D
:102090000123002501F0AEFF20460121012201F0BD
:1020A00073FF300E40EA0924E01B484400EB164061
:1020B00000EB162000063ED1300C40EA0947300AFA
:1020C00040EA09655FFA89F0002104F063FB08EE3D
:1020D000100AE0B2002104F06DF99FED190B54ECE9
:1020E000106B3246234604F0F3F903F087FF00EE4D
:1020F000100A40F6F46038EE000AC2F2000080EDEB
:10210000000AF8B2002104F045FB08EE100AE8B21C
:10211000002104F04FF93246234604F0D9F903F0C8
:102120006DFF00EE100A41F22C0038EE000AC2F2F8
:10213000000080ED000A2846BDEC028BBDE8F08768
:102140009A9999999999B93FB0B58AB040F61640D5
:1021500002F0F6FB46F20044C4F2020420460021DD
:10216000002501F05BFE42F24C00C4F20100019038
:102170000120029040F6CC20C2F20000CDE9030518
:102180004FF40060CDE90505032008904FF40030BE
:10219000099001AA20460021079501F065FE20461E
:1021A000002101F031FE2046002101F023FE0AB09B
:1021B000B0BD000070B5054640F6024002F0C0FB1D
:1021C00040F6024002F0BCFB41F2120002F0B8FB04
:1021D00044F60004C4F2000404F5E036304607215A
:1021E0004FF4806201F096FE304607214FF4006202
:1021F00001F090FE3046022101224FF4806301F08D
:10220000CFFE3046022101224FF4006301F0C8FEE8
:102210003046002102224FF4806301F0EBFE30468D
:10222000002102224FF4006301F0E4FE204602F098
:10223000C7FF2046294602F05BFF2046002103F03D
:10224000C7F82046002103F0DFF82046002103F004
:10225000CDF8204603F018F82046082103F0CEF808
:102260002046042103F0BCF8204640F2053103F07B
:1022700085F8272002210222BDE8704002F066B9ED
:1022800070B540F67426C2F20006317800250129A7
:1022900047D1044624A0FEF725FA40F67520C2F285
:1022A0000000057040F6AC1048F2DC51C2F20000AC
:1022B000C0F600013570FEF74BFA90B340F6AC154E
:1022C000C2F200051AA02946FEF76AF848F2DC5669
:1022D000C0F6000628463146FEF73AFA0A3019A140
:1022E000FEF716FA01462046FEF744FA16A02146EC
:1022F000FEF756F828463146FEF72AFA05462046EC
:10230000FEF75CFA28440C3015A11434FEF700FAED
:1023100001462046FEF72EFA12A02146FEF740F8AD
:102320000125284670BD00BF0D0A2D2D0D000000AF
:10233000526563656976656420646174613A20253D
:10234000730A000022000000646174612D3E6B6519
:10235000796E616D65203D2025730D0A0000000037
:102360007D000000646174612D3E76616C756520AE
:102370003D2025730D0A000040F6CC21C2F2000179
:1023800031F81010002818BF022810D100EE101AE2
:102390009FED111AB8EE400A80EE010AB7EE001A5E
:1023A0009FED0E2A30EE010A20EE020A0FE001280E
:1023B0001CBF0020704700EE101A9FED091AB8EEFE
:1023C000400A80EE010A9FED051A20EE010ABDEEDB
:1023D000C00A10EE100A704700F07FC50000C84226
:1023E00000F07F4540F6F460C2F2000090ED000A74
:1023F0007047000041F22C00C2F2000090ED000A8C
:1024000070470000FEE70000FEE700007047000094
:1024100040F2B0410020C2F200014FF0000C00BFBA
:102420006FF00703CA180833B3F57E7F1072F9D135
:102430000CF1010CBCF1080F01F1010108BF00F023
:10244000C1B8EDE7B0B540F6014002F079FA40F6C8
:10245000014002F075FA40F20044C4F20204204642
:10246000012101224FF4806301F09AFD20460021F2
:1024700002224FF48063002501F0BCFD20464FF49A
:102480008061012201F080FD2046012101224FF4EC
:10249000006301F085FD2046002102224FF4006315
:1024A00001F0A8FD20464FF40061012201F06CFD0F
:1024B000C82001F04FFCAE20002100F053FA0020AC
:1024C000002100F04FFA1020002100F04BFA4020CC
:1024D000002100F047FA8120002100F043FACF20CC
:1024E000002100F03FFAA120002100F03BFAC820B3
:1024F000002100F037FAA620002100F033FAA820CE
:10250000002100F02FFA3F20002100F02BFAD32009
:10251000002100F027FA0020002100F023FAD52046
:10252000002100F01FFA8020002100F01BFAD920C2
:10253000002100F017FAF120002100F013FADA2050
:10254000002100F00FFA1220002100F00BFADB202E
:10255000002100F007FA4020002100F003FA2020BB
:10256000002100F0FFF90220002100F0FBF98D208E
:10257000002100F0F7F91420002100F0F3F9A42065
:10258000002100F0EFF9A620002100F0EBF940F265
:10259000B040C2F200000838002100BF802203468C
:1025A000013A03F8085FFBD10131082900F101006D
:1025B000F4D100F007F8AF200021BDE8B04000F0F2
:1025C000D1B90000F0B581B040F2B04640F200440D
:1025D0000025C2F20006C4F2020400BFA5F15000BB
:1025E000C0B2002100F0BEF90020002100F0BAF9CD
:1025F0001020002100F0B6F920464FF400610122BE
:1026000001F0C2FC20464FF48061012201F0BCFCC5
:102610000D2001F0C9FB20464FF40061002201F0BB
:10262000B3FC0D2001F0C0FB20464FF48061002276
:1026300001F0AAFC0D2001F0B7FB782000F066FB4A
:1026400020464FF40061012201F09EFC0D2001F0B4
:10265000ABFB20464FF48061012201F095FC0D2078
:1026600001F0A2FB20464FF48061002201F08CFCB7
:102670000D2001F099FB402000F048FB20464FF46C
:102680000061012201F080FC0D2001F08DFB20464D
:102690004FF48061012201F077FC0D2001F084FBF2
:1026A00020464FF48061002201F06EFC0D2001F005
:1026B0007BFB6FF0070700BFF019007A00F026FBE4
:1026C00020464FF40061012201F05EFC0D2001F074
:1026D0006BFB20464FF48061012201F055FC0D2078
:1026E00001F062FB20464FF48061002201F04CFCB7
:1026F0000D2001F059FB0837B7F57E7FDCD120466D
:102700004FF40061002201F03FFC20464FF480614D
:10271000012201F039FC0D2001F046FB20464FF468
:102720000061012201F030FC0135082D06F101069F
:102730007FF454AF01B0F0BD2DE9F04F88B0082B05
:102740000791059002D1062161B990E0D8080121D6
:102750005F0718BF01EBD30059084843C1B20029F5
:1027600000F08580A2F12000C7B25808039046F619
:10277000742007EB4702C0F6000000EB4200049013
:1027800047F21010DDF844E0019240F2B042C0F68A
:102790000000DDF814C04FF000090126C2F200026B
:1027A00000EB071002970090069104E0069809F1EB
:1027B000010981455BD0082B02D104981AE000BFC3
:1027C000182B0BD0102B14D00C2B50D1019846F69F
:1027D0009C41C0F6000101EB800108E0029800EB8B
:1027E000C00147F20070C0F6000000EB81014944CF
:1027F00002E0009800EB090191F800B007995FFA38
:102800008CF8002410E000BFBEF1000F18D002EBDE
:10281000C800C55D25EA0A054FEA5B0B0131072CAC
:1028200004F10104C55511D2CFB201F00700FF0831
:102830005FEACB7506FA00FAE6D0BEF1000FE6D0EB
:1028400002EBC800C55D45EA0A05E5E7082B0CF177
:10285000010CABD005995FFA8CF0039C401AA042A2
:1028600008BF8C46079808BF083007909EE708B05D
:10287000BDE8F08F002B08BF70472DE9F04F81B005
:10288000DDF828801C4692468B4681464FEA580563
:1028900000260220B8F1080F08BF00EB58050FE032
:1028A00006FB059140F03002C8B2D2B259460B9FE8
:1028B00043460097FFF740FF0136F0B2A04223D213
:1028C000F0432044010609D0012100BF013801EB8B
:1028D000810102064FEA4101F8D100E00121BAFB73
:1028E000F1F04CF6CD41CCF6CC41A0FB0112D10861
:1028F00001EB8101A0EB41000028D1D106FB05903E
:102900005946C0B23022D2E701B0BDE8F04F70475F
:102910002DE9F04381B0994613780D46A3F12001CB
:10292000C9B25E291BD8DDF8208006464FEA590758
:10293000541EB9F1080F08BF062700BFF0B2DAB283
:1029400029464B46CDF80080FFF7F6FEA3783E44BB
:10295000A3F12000C0B25F2804F10104EED301B05E
:10296000BDE8F08370B540F20044C4F202040E46A4
:102970000546002920464FF400614FF0010218BFC0
:10298000012601F001FB20464FF48061012201F095
:10299000FBFA0D2001F008FA20464FF400610022F6
:1029A00001F0F2FA0D2001F0FFF920464FF48061AA
:1029B000002201F0E9FA0D2001F0F6F9782000F08C
:1029C000A5F920464FF40061012201F0DDFA0D2047
:1029D00001F0EAF920464FF48061012201F0D4FAB7
:1029E0000D2001F0E1F920464FF48061002201F052
:1029F000CBFA0D2001F0D8F9B00100F087F920469C
:102A00004FF40061012201F0BFFA0D2001F0CCF972
:102A100020464FF48061012201F0B6FA0D2001F04A
:102A2000C3F920464FF48061002201F0ADFA0D2079
:102A300001F0BAF9284600F069F920464FF4006128
:102A4000012201F0A1FA0D2001F0AEF920464FF469
:102A50008061012201F098FA0D2001F0A5F92046CD
:102A60004FF48061002201F08FFA0D2001F09CF9F3
:102A700020464FF40061002201F086FA20464FF410
:102A80008061012201F080FA0D2001F08DF92046CD
:102A90004FF400610122BDE8704001F075BA0000FA
:102AA0002DE9F04FADF5217D8A46804641A84FF4CF
:102AB000C071FDF73BFF01A84FF48071FDF736FFB1
:102AC00008F11406FFF796FC10EE100A03F034FE2E
:102AD00048F2EB57C0F6000702460B46304639462F
:102AE000FDF76AFC08F15A06FFF77CFC10EE100AAD
:102AF00003F022FE02460B4630463946FDF75CFCE9
:102B0000002008F1A007FFF737FC48F2E856C0F6AE
:102B10000006024638463146FDF74EFC012008F11A
:102B2000E607FFF729FC024638463146FDF744FC2C
:102B3000022008F59677FFF71FFC0246384631461B
:102B4000FDF73AFC40F6D420C2F20000026808F516
:102B5000B9703146FDF730FC40F6D070C2F200008B
:102B600090ED000B48F2EE57C0F6000708F5DC7058
:102B700053EC102B3946FDF71FFC40F66070C2F293
:102B8000000090ED000B08F5FF7053EC102B394658
:102B9000FDF712FC40F6E420C2F20000026808F5DE
:102BA00011703146FDF708FCBAF1000F21D0AAF1EF
:102BB000010701AE00244FF0460B0FF2E00939A5E2
:102BC00006E000BF4946FDF7F7FB0134544510D03D
:102BD00004FB0B82A74202F114033046F2DD32A15E
:102BE0000095FDF7E9FB013E16F8010F0028FBD127
:102BF000EBE72FA139A241A801ABFDF7DDFB9DF862
:102C0000040198B144F2004441ADC4F2000400BF95
:102C1000C1B2204602F0D0FA2046072102F03AFB6A
:102C20000028F9D015F8010F0028F1D140F67427DB
:102C300040F6752840F6AC1448F2E5590326C2F276
:102C400000070025C2F20008C2F20004C0F6000925
:102C500007E000BF2046C821FDF768FE013E3006B0
:102C600013D04FF4FA6001F075F838780128F5D1E7
:102C7000204649463D7088F80050FDF769FD002860
:102C8000E8D00DF5217DBDE8F08F0020387088F880
:102C900000000DF5217DBDE8F08F00BF2573257381
:102CA000000000005C2C00002573257325730000D4
:102CB00041542B4D5154545055423D302C222573D4
:102CC000222C227B5C22706172616D735C223A7BE4
:102CD00025737D7D222C312C300D0A002F737973E2
:102CE0002F6B3231336E7537626546392F54455339
:102CF000542F7468696E672F6576656E742F7072D5
:102D00006F70657274792F706F73740070B540F2D4
:102D1000004504460026C4F2020500BFE0B2C20925
:102D200028464FF4006101F02FF90D2001F03CF826
:102D300028464FF48061012201F026F90D2001F0B0
:102D400033F828464FF48061002201F01DF9640039
:102D5000072E06F10106E1D370BD000040F6EC60DD
:102D6000C2F2000001680131016001F049BF0000BA
:102D700081B04EF68851CEF200010A6843F6080091
:102D800042F47002C4F202000A6050F8081C41F0DC
:102D9000010140F8081C00BF50F8081C8907FBD54A
:102DA000016841F08001016000210091009A4F2AE2
:102DB00006D800BF009A01320092009A502AF9D337
:102DC000026842F090020260009100994F2905D8F4
:102DD00000990131009100995029F9D301684FF60B
:102DE000FF7221F00301016050F8081CCFF6F66273
:102DF000114040F8081C50F8081C21F4802140F8CC
:102E0000081C00210160026843F21002C2F2004275
:102E100040F8042C416050F8081C41F4803140F81F
:102E2000081C4FF6FF7100BF50F8082C920303D422
:102E30000029A1F10101F7D150F8081C8903FBD545
:102E4000826B47F2000142F08052C4F200018263BB
:102E50000A6842F440420A6002680260026842F472
:102E600000420260026842F4A052026045F2084249
:102E7000C0F2407240F8042C50F8082C42F08072E6
:102E800040F8082C50F8082C9201FBD50A6842F44F
:102E900080320A604A68D203FCD50A6842F40032E4
:102EA0000A6000BF4A689203FCD5016821F0030163
:102EB0000160016841F00201016000BF016809077B
:102EC000FCD501B07047000070B540F20044C4F278
:102ED00000042046012102F0FFF8012818BF70BD50
:102EE00040F2040640F6E475C2F200060020C2F289
:102EF000000530702846FFF7C3F914A12846FDF7F6
:102F000027FCE0B1143528463021FDF707FC28B135
:102F100004F5FE302021002201F036F82846312148
:102F2000FDF7FCFB28B104F502308021012201F0FD
:102F30002BF840F6E470C2F20000FEF7F7FF2046DF
:102F40000121012402F0C4F8347070BD62756D7007
:102F50005F5377697463680010B541F20004C4F2EE
:102F600000042046012102F0B7F8012818BF10BD67
:102F7000FFF71AF820460121BDE8104002F0A8B87A
:102F8000F0B581B041F2000440F20435C4F201040E
:102F9000C0F2040505F10111204602F007FA40F6DF
:102FA000EA6740F6E8260128C2F20007C2F20006EE
:102FB00006D1204602F0FCF839884A1C3A80705449
:102FC0002046294602F0F2F901281CBF01B0F0BDED
:102FD000204602F0EDF8388840F6E8620021C2F29F
:102FE00000020123315420462946137001B0BDE888
:102FF000F04002F0CFB90000F0B581B044F20044D7
:1030000040F20435C4F20004C0F2040505F10111D8
:10301000204602F0CBF940F6752740F6AC16C2F216
:103020000007C2F2000688B1204602F0C1F83978E4
:103030007054C0B2FDF750FB38784FF4A4710130E2
:103040004143090CC82201FB120038702046294672
:1030500002F0ACF901281CBF01B0F0BD204602F01F
:10306000A7F8387840F674220021C2F2000201234A
:10307000315420462946137001B0BDE8F04002F0FB
:1030800089B90000F0B581B044F60004C4F2000430
:1030900040F20531C0F20501204602F087F9002810
:1030A00043D0204602F084F8C2B240F24B47242AB3
:1030B000C2F2000704BF002038703B7840F24C3168
:1030C000581CC2F200010A2A3870CA5428D10A7862
:1030D000242A25D10A794D2A22D1497943291FD1A1
:1030E00040F63015C4B2C2F20005C4F1500155FAE1
:1030F00080F04F2C88BF0021FDF7F6FB40F24C36E4
:10310000C2F20006284631462246FDF7BBFB0120ED
:1031100085F85000002038703046FF21FDF706FC8E
:103120003878FF2804BFFF20387001B0F0BD0000E0
:10313000FEE700004FF4E13000F0AABB2DE9F04FAC
:10314000D7B044F200440FA8FA21C4F20004FDF7FE
:10315000EDFB02A83221FDF7E9FB48F24957C0F622
:103160000007381D019048F21F5040F6742B40F6BE
:10317000AC16C0F6000048F24E594121C2F2000BD5
:103180000025C2F2000600F10D0AC0F600090DE0AC
:103190003046C821FDF7CAFB48F249578BF800506A
:1031A00088F800504121C0F6000700BF89B22046D0
:1031B00002F002F82046072102F06CF80028F9D04E
:1031C00017F8011F01988742F0D14FF0030804E07F
:1031D000A8F101085FEA08601AD0642000F0BAFD87
:1031E0009BF800000128F3D140F67520C2F20000E0
:1031F00048F2E55105703046C0F600018BF80050EA
:10320000FDF7A6FA58B93046C821FDF78FFBDFE776
:1032100040F67520C2F200008BF80050057048F2AD
:103220001F5740F675284120C0F60007C2F200087B
:1032300081B2204601F0C0FF2046072102F02AF8A3
:103240000028F9D017F8010F5745F1D1032702E004
:10325000013F380618D04FF4967000F07BFD9BF8C4
:1032600000000128F4D148F2E5513046C0F60001D3
:103270008BF8005088F80050FDF76AFA40B93046E4
:10328000C821FDF753FBE3E78BF8005088F80050A6
:1032900048F297474120C0F6000700BF81B22046A0
:1032A00001F08AFF2046072101F0F4FF0028F9D041
:1032B00048F2974117F8010FC0F6000126318F42FE
:1032C000ECD1032703E000BF013F380618D064208B
:1032D00000F040FD9BF800000128F5D148F2E551CF
:1032E0003046C0F600018BF8005088F80050FDF71A
:1032F0002FFA48B93046C821FDF718FBE4E700BFB4
:103300008BF8005088F800500FA80FF2F0410FF230
:1033100004520FF20453FDF74FF89DF83C0078B1CA
:103320000FAF00BFC1B2204601F046FF2046072183
:1033300001F0B0FF0028F9D017F8010F0028F1D1F3
:10334000032702E0013F38061AD040F6B83000F0FB
:1033500001FD9BF800000128F4D148F2E551304608
:10336000C0F600018BF8005088F80050FDF7F0F926
:1033700000283ED13046C821FDF7D8FAE2E700BF69
:1033800048F2A050C0F600008BF8005088F80050BA
:10339000FDF7A8F941204F4681B2204601F00CFF0D
:1033A0002046072101F076FF0028F9D017F8010F19
:1033B00009F108018F42EFD14FF47A7000F0CAFC96
:1033C0009BF8000001287FF4E7AE48F22161304607
:1033D000C0F600018BF8005088F80050FDF7B8F9EE
:1033E00048F2495741210028C0F600077FF4DEAEBD
:1033F000CEE60FA8FA21FDF799FA00274EAE0FF29C
:1034000024400FF2444220212E238DF85A71ADF84A
:103410005871ADF854715497CDE95277CDE9507792
:10342000CDE94E77009600F009FE0DF5AC7AAAF1D1
:1034300001050FF244460DF108088DF85A71ADF8F8
:10344000587100BF4EA8C25D50463146FCF7B4FF2C
:103450009DF8080030B1404610F8011F0029FBD14B
:1034600001E000BF40460138294600BF11F8012F96
:10347000002A00F8012FF9D10137142FE2D148F2C8
:103480006A5002ADC0F600002946FCF789FF48F2F9
:10349000CB56C0F600060FF2E8303146FCF780FF4D
:1034A00048F26A41C0F600010FA832462B46FCF7ED
:1034B00083FF9DF83C0078B10FAD00BFC1B220463C
:1034C00001F07AFE2046072101F0E4FE0028F9D041
:1034D00015F8010F0028F1D140F6AC1548F2E55877
:1034E00003270026C2F20005C0F6000803E000BF73
:1034F000013F380618D04FF4FA6000F02BFC9BF81F
:1035000000000128F4D140F67520C2F200000670D8
:10351000284641468BF80060FDF71AF960B9284645
:10352000C821FDF703FAE3E740F675210020C2F257
:1035300000018BF8000008700FAD2846FA21FDF756
:10354000F5F948F2BE4148F22762C0F60001C0F624
:1035500000022846FCF730FF9DF83C0070B10FAD2B
:10356000C1B2204601F028FE2046072101F092FE5C
:103570000028F9D015F8010F0028F1D140F6AC155C
:1035800048F2E55803270026C2F20005C0F60008FD
:1035900003E000BF013F380618D04FF47A7000F006
:1035A000D9FB9BF800000128F4D140F67520C2F247
:1035B00000000670284641468BF80060FDF7C8F809
:1035C00060B92846C821FDF7B1F9E3E740F6752157
:1035D0000020C2F200018BF8000008700FAD2846F1
:1035E000FA21FDF7A3F948F2035148F2BD52C0F6A3
:1035F0000001C0F600022846FCF7DEFE9DF83C0004
:1036000070B10FADC1B2204601F0D6FD20460721B2
:1036100001F040FE0028F9D015F8010F0028F1D183
:1036200040F6AC1548F2E55803270026C2F2000523
:10363000C0F6000803E000BF013F380619D04FF480
:10364000FA6000F087FB9BF800000128F4D140F6F7
:103650007520C2F200000670284641468BF80060D3
:10366000FDF776F8002864D12846C821FDF75EF9F9
:10367000E2E740F675280020C2F200088BF800004F
:1036800088F8000048F28350C0F60000FDF72AF8E1
:10369000412009F1080500BF81B2204601F08CFDF0
:1036A0002046072101F0F6FD0028F9D019F8010F96
:1036B000A945F1D140F6AC1448F221650226002755
:1036C000C2F20004C0F6000507E000BF2046C82192
:1036D000FDF72CF9013E300612D04FF47A7000F05D
:1036E00039FB9BF800000128F4D1204629468BF8CD
:1036F000007088F80070FDF72BF80028E6D004E091
:1037000000208BF8000088F80000012080F3138867
:103710004EF60C50CEF20000BFF34F8F016804222A
:1037200001F4E061C0F2FA5211430160BFF34F8F20
:10373000FEE70FAD2846FA21FDF7F8F848F2ED4113
:1037400048F2F252C0F60001C0F600022846FCF72B
:1037500033FE9DF83C0040F67528C2F2000878B1AF
:103760000FAD00BFC1B2204601F026FD2046072163
:1037700001F090FD0028F9D015F8010F0028F1D1D3
:1037800040F6AC1448F2E55503260027C2F20004C7
:10379000C0F6000507E000BF2046C821FDF7C6F8C7
:1037A000013E300612D04FF47A7000F0D3FA9BF845
:1037B00000000128F4D1204629468BF8007088F8D3
:1037C0000070FCF7C5FF0028E6D004E000208BF86D
:1037D000000088F8000048F27450C0F60000FCF7C2
:1037E00081FF601CC721FDF77FF8002088F80000EA
:1037F0008BF8000057B0BDE8F08F00BF41542B4359
:10380000574A41503D222573222C222573220D0A4E
:1038100000000000777777007777773132333435DF
:103820003600000036386338346339633438366420
:10383000306564373030303232356637393533628F
:103840003431616600000000636C69656E74496420
:103850003132336465766963654E616D65544553F5
:103860005470726F647563744B65796B3231336E6B
:103870007537626546390000253032580000000077
:10388000557365724E616D653D25730D0A0000002C
:1038900070B5054641F2110001F052F84FF4406056
:1038A00001F04EF84FF4406001F04AF844F2004451
:1038B000C4F2000404F5DE3630460721042200F08D
:1038C00029FB30460721082200F024FB3046022164
:1038D0000122042300F064FB304602210122082368
:1038E00000F05EFB304600210222042300F082FB40
:1038F000304600210222082300F07CFB20462946A6
:1039000001F0F6FB2046002101F062FD2046002177
:1039100001F07AFD2046002101F068FD204601F00B
:10392000B3FC2046082101F069FD2046042101F086
:1039300057FD204640F2053101F020FD20464FF4AE
:10394000417101F01BFD262002210222BDE87040DA
:1039500000F0FCBD70470000816841F00801816003
:1039600081680907FCD4816841F00401816000BFCF
:1039700081684907FCD4704780B502290AD0012923
:103980001CD1511E102919D24FF4700E6FF4700C17
:103990002C2308E0511E032988BF80BD4FF4401E30
:1039A0006FF4401C3823195801EA0C0119500EEB32
:1039B00002511A5801EA0E011143195080BD00004E
:1039C00042F20431C4F201010A6822F4E0220A60E2
:1039D0000A681043086070478268002922F4006278
:1039E00018BF02F5006282607047000080B540F6A3
:1039F000081000F0C5FF40F60810BDE8804000F058
:103A0000AFBF0000816841F48071816070470000A1
:103A1000816841F400718160704700008168C907C6
:103A200018BF7047816841F0010181607047000054
:103A3000012907D0022918BF70474FF0140C6FF40A
:103A4000401303E04FF01C0C6FF04053816802FA02
:103A50000CF2194081608168114381607047000059
:103A600010B5052904D800F1340C01EB810E10E0EB
:103A70000B2906D801EB810100F1300CA1F11E0EDB
:103A800007E00F2910D801EB810100F12C0CA1F106
:103A90003C0EDCF800101F2404FA0EF4A14302FAD5
:103AA0000EF42143CCF80010092A03D8103002EBA1
:103AB000420106E0122A88BF10BD02EB42010C3021
:103AC0001E39026807248C40A24303FA01F1114316
:103AD000016010BD012905D0022918BF70474FF4BD
:103AE000800101E04FF0804182681143816070479E
:103AF00032B1CA0518D44A051CD4890720D47047AE
:103B0000CA0503D5426822F4807242604A0503D593
:103B1000426822F480624260890758BF704781681A
:103B200021F0020181607047426842F48072426075
:103B30004A05E2D5426842F4806242608907DED5D8
:103B4000816841F0020181607047000042F2043157
:103B5000C4F201010A6822F01F020A600A681043D9
:103B6000086070474EF62350CEF200004FF000611F
:103B700040F81B1C40F20801C2F20001096844F63B
:103B8000D352C1F26202A1FB02124FF0FF3101EBEE
:103B90009211B1F1807F0DD24EF21002CEF20002EE
:103BA0005160F021017000210723916013600170C2
:103BB000704700BFFEE7000070B588B04FF440606A
:103BC00000F0BEFE0024C4F20204204601210122BE
:103BD0002023012500F0E4F92046002102222023C1
:103BE000002600F007FA20462021002200F0CCF940
:103BF0004FF4805000F0A4FE4FF0807000F0D0FE33
:103C00004FF0804001F060F9A720CDE9040642F2B0
:103C10000F70069004A94FF080408DF81C6001F0F1
:103C2000FDF94FF0804001F0F3F901AC204601F0BE
:103C300045F94FF0804000212246ADF80450ADF820
:103C4000086001F003F84FF08040002141F2873214
:103C500001F012F94FF080400021602201F0F0F8ED
:103C60004FF080400021002201F00CF94FF080401D
:103C700000F0E6FF08B070BD70B584B0064641F2B2
:103C800004000D4600F05CFE4FF0807000F088FEEE
:103C900041F20004C4F20004204601F015F9701E40
:103CA000ADF800000020691ECDF802000291ADF8C9
:103CB00006008DF80C006946204601F0AFF9362069
:103CC0000321022200F042FC2046012101F0FCF910
:103CD000204601F09DF904B070BD000070B584B0BD
:103CE000064641F201000D4600F02AFE4FF08070BA
:103CF00000F056FE40F20044C4F20004204601F0F9
:103D0000E3F8701EADF800000020691ECDF8020037
:103D10000291ADF806008DF80C006946204601F0CE
:103D20007DF91D200221022200F010FC2046012115
:103D300001F0CAF9204601F06BF904B070BD000033
:103D400080B540F63010C2F200007921FCF7EEFD9C
:103D500080BD000080B540F20801C2F20001096890
:103D60004DF68362C4F21B32A1FB02124EF218011F
:103D7000CEF20001920C50434FF47A720B6800FBB4
:103D800002FC002208E000BF51F804ECC01A7044A5
:103D90000244624528BF80BD184600BF0B689842A8
:103DA000FCD0F1D9C01AF3E780B540F20801C2F2A5
:103DB000000109684DF68362C4F21B32A1FB0212B6
:103DC0004EF21801CEF20001920C0B6802FB00FCCF
:103DD000002207E051F804ECC01A70440244624526
:103DE00028BF80BD184600BF0B689842FCD0F1D9AF
:103DF000C01AF3E701EB410100EBC100016941F09A
:103E0000010101617047000001EB410100EBC100BD
:103E1000016941F4807101617047000001EB4102CA
:103E200000EBC20213694FF03D0C23F00103136154
:103E30000023136153619361D361136253620A1FBC
:103E400028BFD1B201EB410301F002014FF00C0297
:103E50004FEA410138BF082201EB430113580CFA25
:103E600001F119431150704780B501EB410100EB9E
:103E7000C100416A48F23F7321F0040141621168B8
:103E8000CFF6FC7381619168C161D16941610169BB
:103E9000D2F818E001EA030C116A136941EA0C0137
:103EA00041EA830141EA0E01194301615168012988
:103EB00007D00029016914BF41F4004141F40071A9
:103EC00002E0016921F400710161D16803690029F0
:103ED00023F4806308BF03F58063036151690269BD
:103EE000002922F4807208BF02F58072026180BD51
:103EF000B0B541F20005C4F201050446C1B228463E
:103F000001F05AF92846072101F0C4F90028F9D038
:103F10002046B0BDF0B5D0F820E0D0F824C0002392
:103F20000F27002505E000BF0135082D03F104032C
:103F30000CD022FA05F6F607F6D007FA03F62EEAB9
:103F4000060601FA03F446EA040EEDE7082300240E
:103F50000F2504E00133102B04F104040CD022FAE5
:103F600003F6F607F6D005FA04F62CEA060701FA7E
:103F700004F647EA060CEDE7C0F820E0C0F824C0DC
:103F8000F0BD0000816170471823002A08BF282374
:103F9000195070470069084018BF012070470000A1
:103FA0002DE9F041D0F800E0D0F80CC000244FF02B
:103FB0000308002605E000BF0136102E04F10204BC
:103FC00012D023FA06F7FF07F6D008FA04F72EEA14
:103FD000070E01FA04F54EEA050E2CEA070702FA6D
:103FE00004F547EA050CE7E7C0F800E0C0F80CC0AC
:103FF000BDE8F0810129416814BF9943194341602C
:10400000B0B5D0F808C000214FF0030E002404E042
:104010000134102C01F102010CD023FA04F5ED0754
:10402000F6D00EFA01F52CEA050C02FA01F54CEA7D
:10403000050CEDE7C0F808C0B0BD00002DE9F04F59
:10404000E5B055AE89468046304640211D461446AF
:10405000FCF76CFC45AF38464021FCF767FC0DF1DE
:10406000D40B58464021FCF761FC20A85421FCF7F2
:104070005DFCEA4650468021FCF758FC3046402162
:10408000FCF754FCB9F1400F03D155A8414640223A
:1040900011E00ADD4046DDF8B8814946424600F0AD
:1040A00091FC55A84146142205E0B9F1010F04DB4B
:1040B00055A841464A46FCF7A0FB4FF0FF3000BF31
:1040C000311849783A18013081F036013F28517093
:1040D000F6D145AB0FCB012D8DE80F00DDE949018D
:1040E000DDE94D23CDE90401DDE94BC1DDE94F07F1
:1040F000CDE9082351ABCDE90A07CDE906C1549AB1
:104100000BCB0F92CDE90D130C900ADB00210020A0
:104110000130625C01EB0A03C1B2A94283F840207E
:10412000F6DB6E9C05F140016846224600F04AFC31
:104130004FF0FF30311849780BEB0002013081F06D
:104140005C013F285170F5D135AB0FCB0DF1800CE0
:104150008CE80F00DDE939013BAFCDE92401CFCF79
:104160000DF1980C8CE8CF00449A41AB0BCB2F9209
:104170002CAA20AD0BC205F1400021461422FCF709
:104180003CFB28465421224600F01CFC65B0BDE8EB
:10419000F08F00000000000082B0FFF7E3FC4FF456
:1041A0001650FEF707F8FFF7CBFDFEF74BF9FEF7C9
:1041B0002FF90124BCA200200021082300944FF015
:1041C0000809FEF7A5FBBCA20020082108230094E3
:1041D000FEF79EFBBCA20020102108230094FEF7EE
:1041E00097FBBCA20020182108230094FEF790FB47
:1041F000BDA20020202108230094FEF789FBFEF7D2
:10420000E1F9FDF7B3FEFDF729FEFDF79DFFFFF78E
:10421000D3FC4FF4E13001F045F84FF4A06000F01A
:10422000E7F9B6A0FCF75EFA4FF47A70FFF792FD5B
:10423000FEF780FFFEF782FF40F6E470C2F2000056
:104240000921FEF72DFC44F2A01041F28831FFF75E
:1042500013FD44F2A01040F6B831FFF73FFD40F6E1
:10426000F06740F6607840F6687640F6FC6A40F603
:10427000E02B40F6D4259FED8A8BC2F20007C2F2F4
:104280000008C2F20006C2F2000AC2F2000BC2F23B
:10429000000500BF3868022808D0012822D0002875
:1042A00055D100F0AFF900F089FA50E040F6D07037
:1042B000C2F2000090ED000B92A053EC102BFCF723
:1042C0006FF898ED000B94A053EC102BFCF768F8F6
:1042D00096A03146FCF764F898A05146FCF760F8C8
:1042E00035E000BF40F6DC213046C2F2000101F0AB
:1042F000C3FD4546D8465BEC189B51EC100B4A4673
:104300005B4601F0C1FE41EC100B40F6D070C2F2EA
:10431000000040F6D82180ED000B5046C2F20001AB
:1043200001F0AAFD51EC100B4A465B464FF008091C
:10433000C346012401F0A8FE41EC100BA84685ED10
:10434000000B40F6D4250220C2F200053860FEF7CB
:1043500051F8BDEEC00A10EE102A202000210323E0
:10436000CDE90094FEF786FAFEF73CF8BDEEC00AF0
:1043700010EE102A602000210323CDE90094FEF7FF
:1043800079FA0020FDF7F8FF0246202008210323D8
:10439000CDE90094FEF76EFA0120FDF7EDFF02462D
:1043A000602008210323CDE90094FEF763FA022080
:1043B000FDF7E2FF0246202010210323CDE90094FF
:1043C000FEF758FA18201821524608230094FEF7E9
:1043D0009FFA18202021324608230094FEF798FA0D
:1043E000FEF7F0F80220FDF7C7FF152818D30020CC
:1043F000C4F2020020210122FFF7C6FD40F6E420AE
:10440000C2F2000004600220CBF800402C60FDF7EF
:10441000B3FFC0F164005A2100F064F92FE000BF3F
:104420000020FDF7A9FF372814D80020C4F20200AD
:1044300020210122FFF7A8FD40F6E070C2F2000043
:10444000046000202C60FDF797FF462100F04AF938
:1044500015E000BF0020C4F2020020210022FFF777
:1044600093FD40F6E0710020C2F20001086040F6C2
:10447000E421C2F200012860CBF80000086040F29D
:104480000400C2F20000007801287FF403AF40F27C
:104490000C00C2F200000921FEF702FBFAE600BFA1
:1044A000000000000000594054656D703A20202043
:1044B0002020204875693A00736F696C3A202020EB
:1044C0002020206D71203A00666972653A20202014
:1044D000000000006C61743A202020202020202061
:1044E000202020204E0000006C6F6E3A20202020FB
:1044F00020202020202020205700000073746172AB
:10450000740D00006C6F6E5F76616C75653D252ED5
:10451000376C660D0A0000006C61745F76616C7523
:10452000653D252E376C660D0A0000006C6F6E5FCE
:1045300076616C75653D25730D0A00006C61745FD2
:1045400076616C75653D25730D0A00004EF60C5CB6
:10455000CEF2000CDCF8003003F4E063B3F5E06F5A
:1045600001D1042328E0DCF8003003F4E063B3F564
:10457000C06F01D103231FE0DCF8003003F4E063D7
:10458000B3F5A06F17D0DCF8003003F4E063B3F5A7
:10459000806F01D101230FE0DCF8003003F4E06309
:1045A000B3F5407F01D1002306E040F20053C0F292
:1045B000FA53CCF80030022301FA03FCC3F10403E0
:1045C0000F21D94011404EF2001241EA0C01CEF207
:1045D0000002090140EA020383F8001300F01F0102
:1045E000012303FA01F11C2303EAD0008150704734
:1045F00040F080604EF60C5140F0FD70CEF20001AC
:10460000086070472DE9F04782B040F63014C2F2DE
:10461000000494F85000002861D048F26449002555
:104620004FF0010AC0F600090DF1060884F8505059
:104630000CE000BF002030214A460823CDF800A03E
:10464000FEF766F9062D05F1010548D2A5B101373F
:1046500038462C21FCF762F80028EBD00646681E8D
:1046600005282ED8DFE800F003171A1E2226F21BB9
:1046700004F1520022E000BF20462C21FCF74EF846
:1046800007460028DED1CDF800A0002030214A46A0
:1046900008230027D4E7F21B40460FE0F21B04F189
:1046A0005D000BE0F21B04F1680007E0F21B04F16F
:1046B0006A0003E0F21B04F1760000BF3946FCF704
:1046C0009CF89DF806100120412984F8510002D081
:1046D000562902D1002084F878003746B2E702B0AC
:1046E000BDE8F08710B5081A00EE100A40F6F86031
:1046F000C2F2000090ED001AB8EEC00A31EE001AC6
:1047000080ED001A40F6DC70C2F200009FED253A01
:1047100090ED002A21EE031A9FED233A30EE422A53
:1047200031EE001A22EE032A32EE011A9FED1F2A03
:1047300040F6D874B4EE421AC2F20004F1EE10FA58
:1047400084ED001A06DCB5EE401AF1EE10FA03DA39
:104750009FED172A84ED002A40F6E02140F6E07232
:10476000C2F20001C2F200020968126880ED000A7C
:10477000114304BF0020206094ED000A0DA0BDEE9F
:10478000C00A10EE101AFBF70BFE94ED000A4FF072
:104790008040BDEEC00A10EE102A0021BDE8104096
:1047A00000F06ABBCDCCCC3D0AD7233C00401C4670
:1047B0000000000025640D0A00000000F0B59BB069
:1047C00002A86421FCF7B2F840F63015C2F20005E9
:1047D00095F85100002848D002AC002705F152029C
:1047E00023A1204685F85170FBF7E6FD0126002045
:1047F0000221224608230096FEF78AF8FDF7E2FE22
:1048000095F8780040B340F6FC6005F15D01C2F216
:10481000000085F87870FBF7ADFF40F24C4005F1E1
:104820006801C2F20000FBF7A5FF40F6687005F1D1
:104830006A01C2F20000FBF79DFF40F2E82005F19B
:104840007601C2F20000FBF795FF40F6F060C2F27D
:10485000000006601BB0F0BD07A20020382108232D
:104860000096FEF755F8FDF7ADFE1BB0F0BD00BF9A
:10487000543D2225732200006E6F742075736566A7
:10488000756C6C0010B543F60402C4F20202536862
:104890000146C3F3810342F20040022BC0F2F40050
:1048A00006D0012B1FD141F20020C0F27A001AE09D
:1048B000D2F800C013680CF03F0CC3F3881E1368D5
:1048C0001468C3F30143640241F20024C0F27A0485
:1048D00058BF0446B4FBFCF4022000EB430004FB89
:1048E0000EF3B3FBF0F0536811A4C3F30313E35CBE
:1048F000546848F25C4CC4F38224C0F6000C1CF8E7
:1049000004E05268032907D820FA03F3DFE801F036
:104910000F020609184610BD002010BD23FA0EF044
:1049200010BDC2F342301CF8000023FA00F010BDA5
:10493000000000000000000001020304060708094F
:1049400043F6000300F01F018009C4F202034FF098
:10495000010CC2580CFA01F11143C150704700001C
:1049600043F6000300F01F018009C4F202034FF078
:10497000010CC2580CFA01F122EA0101C150704742
:1049800043F6000300F01F018009C4F202034FF058
:10499000010CC2580CFA01F11143C15070470000DC
:1049A00043F68C0CC4F2020CDCF800206FF080712E
:1049B00042EA0003884208BF22F08073CCF800303E
:1049C000704700002DE9F04F87B0009201F1090215
:1049D000D3B29E090127920618BF07EB9316CBB2FC
:1049E0008246C800B3EB861F4FEA8612019607D2B3
:1049F00000270E4601360AF80370F3B29A42F9D83E
:104A00004AF68933CEF6CD73069342F20133C6F2ED
:104A10004573059380230AF8013002EB0A0101F87F
:104A2000010C000A01F8020C00204EF2F0184DF6BD
:104A3000FE4B45F2764921F8040C4FF4A070CCF2FD
:104A4000D238C9F6BA0BC1F23209FBF753FC01990F
:104A5000002900F09E80002219E000BF0599DDF8D2
:104A60000C80314405910699029A59440691D0442C
:104A70000199DDF810A09B46A946013204EB030B17
:104A800007EB05098A420AF1400A00F082804FF6DE
:104A9000C0660024CFF6FF76029213E08119D1F8A8
:104AA0002021D1F83431D1F80851D1F800715A40A1
:104AB0006A407A404FEAF272C1F84021043604F1AC
:104AC00001040BD00F2CE9D80AEB0607D7F8407188
:104AD00081193FBAC1F84071F0E700BFCDF80C80F2
:104AE000C6464D46C846DDE905694FF0000C5B46F9
:104AF0005C46CDF810A011E04FEAFB61714450F81C
:104B00002C20214431440CF1010C8E184FEAB904D9
:104B1000BCF1500FD646B846D9469FD0B34627467B
:104B2000BCF1130FC24605D807EA09012AEA0902B7
:104B3000541814E0BCF1270F04D88AEA070181EA6F
:104B400009040CE08AEA0704BCF13B0F8FBF84EA3A
:104B5000090404EA09010AEA070281EA020447F6A5
:104B60009916BCF1140FC5F68226C5D34EF6A136B0
:104B7000BCF1280FC6F6D966BED34CF2D616CCF6D9
:104B80006226BCF13C0F3CBF4BF6DC46C8F61B76F8
:104B9000B2E7FBF7DEFB059A009910BA000C4880DB
:104BA000100C4870100E069A0870100A8871100CCC
:104BB0004871100E08714FEA1B2088724FEA1B40A3
:104BC00048724FEA1B6008724FEA192088734FEA57
:104BD000194048734FEA196008734FEA1820887427
:104BE0004FEA184048744FEA1860CA7181F80BB058
:104BF00081F80F9081F81380087407B0BDE8F08F3A
:104C000010B541F230014FF0000CC2F200014FF03C
:104C1000010E002304E000BF0C33782B08BF10BD49
:104C2000CA58C8180132CA504468A242F4D380F866
:104C300008E0427A002A18BFC0F800C0ECE7000084
:104C4000016841F08001016070470000032988BFBE
:104C5000704780B5DFE801F002AD4185016A21F0BF
:104C600001010162816921F0030181611188036AF8
:104C700019430162016A002321F002010162B2F8C6
:104C800004C0D0F820E020F48061C4F2010399420E
:104C90004EEA0C01016240F0D080016A21F004016B
:104CA00001625188036A19430162016A21F0080117
:104CB0000162D188036A1943016250F8041F21F48C
:104CC000807101601189036819430160016821F452
:104CD0000071016051890268ADE0016A21F48071C0
:104CE0000162C16921F00301C1611188036A43EACD
:104CF00001210162016A002321F400710162B2F80E
:104D000004C0D0F820E020F48061C4F2010399428D
:104D10004EEA0C21016240F09080016A21F480612A
:104D200001625188036A43EA01210162016A21F4A8
:104D300000610162D188036A43EA0121016250F8EF
:104D4000041F21F4805101601189036843EA0111B5
:104D50000160016821F4005101605289016812016B
:104D600069E0016A21F480510162C16921F4407156
:104D7000C1611188036A43EA01310162016A0023BB
:104D800021F400510162B2F804C0D0F820E020F410
:104D90008061C4F2010399424EEA0C3101624CD1A8
:104DA00050F8041F21F480410160128901689201CA
:104DB00041E0016A21F010010162816921F4407132
:104DC00081611188036A43EA01110162016A0023CB
:104DD00021F020010162B2F804C0D0F820E020F4F4
:104DE0008061C4F2010399424EEA0C11016224D1A0
:104DF000016A21F0400101625188036A43EA01110E
:104E00000162016A21F080010162D188036A43EAEC
:104E10000111016250F8041F21F4806101601189C1
:104E2000036843EA81010160016821F400610160C7
:104E300052890168920011430160BDE880407047CB
:104E4000032988BF7047DFE801F0020D050A50F81A
:104E5000181F01E050F81C1F21F0700107E050F806
:104E60001C1F01E050F8181F21F4E04112020160FC
:104E7000016811430160704703299CBF00EB81006A
:104E800042637047032988BF7047DFE801F0020DD5
:104E9000050A50F8181F01E050F81C1F21F0080106
:104EA00007E050F81C1F01E050F8181F21F40061C2
:104EB00012020160016811430160704700218160A6
:104EC000416001607047000010B541F6FF31C4F247
:104ED000000188421BDC40F6FF31C4F20001884229
:104EE00030DD41F2FF31C4F20001884250DC40F66F
:104EF0000041C4F20001884269D041F20001C4F2CD
:104F00000001884240F0828040F6040476E040F2DE
:104F1000FF31C4F20101884226DD44F2FF31C4F2C0
:104F20000101884243DC40F20041C4F201018842A1
:104F300050D044F20001C4F20101884266D14FF41E
:104F400011645BE0B0F1804F47D040F20041C4F201
:104F50000001884244D040F60001C4F200018842BA
:104F600054D140F6020449E041F60041C4F2000188
:104F7000884238D042F20001C4F20001884235D0A4
:104F80000021C4F20101884240D14FF4106435E0A1
:104F900041F20041C4F2000188422AD041F60001EA
:104FA000C4F20001884231D140F6060426E044F202
:104FB0000041C4F2010188421ED044F60001C4F24F
:104FC0000101884218BF10BD40F6121416E040F6E9
:104FD000030413E040F6011410E04FF400640DE008
:104FE00040F601040AE040F6070407E040F6080432
:104FF00004E040F6050401E040F611142046FFF7F6
:10500000BFFC2046BDE81040FFF7AABC10BD000061
:10501000016841F001010160704700000A8840F218
:10502000004C826240F6FF32C4F200029042C4F2A9
:10503000010C0FDCB0F1804F19D040F20043C4F2F4
:105040000003984213D040F60003C4F200039842D4
:105050000DD018E040F60043C4F20003984206D099
:10506000604504D00023C4F2010398420BD10368C9
:1050700023F0700303604B8802681A4302608A8839
:1050800003681A43026080B541F20002D1F808E0DB
:1050900020F48063C4F200029342C0F82CE007D0F1
:1050A000026822F440720260CA8803681A430260F0
:1050B00040F48062624504BF097B0163416941F0AD
:1050C0000101416180BD0000C2681143C1607047A9
:1050D000C943016170470000C26800690A40084086
:1050E00018BF0120002A18BF01221040704700009D
:1050F000B0B5044647F2FF70C4F200000D4684428A
:105100004FF000000EDC44F6FF31C4F200018C4287
:1051100017DC44F20041C4F200018C421DD044F679
:10512000000116E040F6FF71C4F201018C422FDC51
:1051300047F60001C4F200018C420ED047F6004150
:1051400007E044F60041C4F200018C4205D045F26C
:105150000001C4F200018C4203D102210846FFF78E
:1051600091FBE168090406D400EB5500B0FBF5F0B3
:1051700080B2A060B0BD400000EB5500B0FBF5F080
:105180004FF6F0710140C0F342000844A060B0BD8A
:1051900041F20001C4F201018C424FF00301DDD065
:1051A00041F20042C4F201029442D7D0D9E7000094
:1051B00040686FF35F2070476FF35F214160704775
:1051C00010B547F2FF71C4F20001884214DC44F6C6
:1051D000FF31C4F20001884224DC44F20041C4F2F1
:1051E000000188423CD044F60001C4F2000188422C
:1051F00049D140F612043EE040F6FF71C4F20101CD
:1052000088421EDC47F60001C4F2000188422AD021
:1052100047F60041C4F20001884218BF10BD40F6B5
:105220001F0428E044F60041C4F2000188421DD06A
:1052300045F20001C4F20001884224D140F6140472
:1052400019E041F20001C4F20101884211D041F29B
:105250000041C4F20101884215D140F605140AE06C
:1052600040F6110407E040F61E0404E040F6130483
:1052700001E040F604142046FFF782FB2046BDE81B
:105280001040FFF76DBB10BDC16841F40051C16013
:10529000704700008A09105801F01F01C84000F053
:1052A0000100704770B505464FF44060FFF748FBBA
:1052B0004FF44060FFF744FB41F20410FFF740FB5E
:1052C00041F20004C4F2010404F57046304607219F
:1052D0004FF40072FEF71EFE304607214FF4806245
:1052E000FEF718FE3046022101224FF40073FEF74C
:1052F00057FE3046022101224FF48063FEF750FE34
:105300003046002102224FF40073FEF773FE304650
:10531000002102224FF48063FEF76CFE2046FFF767
:105320004FFF20462946FFF7E3FE2046002100F00C
:105330004FF82046002100F067F82046002100F0D9
:1053400055F82046FFF7A0FF2046082100F056F848
:105350002046042100F044F8252002210222FFF714
:10536000F5F8204640F2053100F008F820464FF4E9
:105370004171BDE8704000F001B8000001F01F026B
:1053800089094FF0010C0B580CFA02F21A430A502B
:1053900070470000C1F30442890D4FF0010C0B5817
:1053A0000CFA02F223EA02020A507047C1F3891292
:1053B00052F800C08A0D105801F01F03C1F30441D8
:1053C000C8402CFA03F1084000F0010070470000CB
:1053D000C26822F4C062C260C2681143C1607047F3
:1053E000C26822F004021143C1607047026922F4CE
:1053F000405202610269114301617047C26822F0A4
:1054000008021143C1607047C26822F48052C26032
:10541000C2681143C16070475FEA400C08BF91F059
:10542000000F4FEA8C234FEAC12243EA51514FEA61
:105430001C5018BF00F5F0404FEA300018BF41F093
:1054400000415FEA6C5C00F02980BCF1FF3F08BFBF
:1054500040F080407047130C06BF12044FF0100C50
:105460004FF0000C130E04BF12020CF1080C130FC6
:1054700004BF12010CF1040C930F04BF92000CF155
:10548000020CD30F04BF52000CF1010C11464FF077
:105490000002A0F11F00A0EB0C00704711F0004FBC
:1054A00008BF704731F000413FF4D5AF0B0C06BF89
:1054B00009044FF0100C4FF0000C0B0E04BF090252
:1054C0000CF1080C0B0F04BF09010CF1040C8B0F3D
:1054D00004BF89000CF1020CCB0F04BF49000CF192
:1054E000010CCCF1200322FA03F341EA030102FA92
:1054F0000CF2A0EB0C0000F10100704723F07F4795
:1055000020F07F4C80EA030000F00040ACEB070382
:1055100003F57C5303F1FF032DE9804909B44FEAF9
:10552000144324EA03484FEA154B25EA0B4E0FF2C9
:10553000042606EB13273E7803FB0667C7F5000732
:1055400007FB06F64FEAD64606F102064FEA543745
:1055500007FB066CCCF1005C4FEA1C472CEA074CB9
:105560000CFB06F507FB06F404EB15464FEA96160E
:1055700049085FEA320234BF00204FF000404FEA92
:10558000D13706FB07FC4FEA1C4C0CFB0BF7D21B78
:1055900003FB0CF761EB07010CFB0EF7B0EB0740C8
:1055A00072EB17420CFB08F734BFA2EB0742B2EBD9
:1055B000074261EB17414FEA0C444FEA910706FBA3
:1055C00007FC4FEA1C4C0CFB0BF7B0EBC74072EB2F
:1055D000573203FB0CF734BFA2EBC742B2EBC74212
:1055E00061EB57310CFB0EF7B0EBC70072EB577253
:1055F0000CFB08F734BFA2EBC702B2EBC70261EBAA
:1056000057714FEA816141EA92114FEA826242EAA0
:1056100090124FEA806004EBCC04039F4FEAD1372D
:1056200006FB07FC4FEA1C4C0CFB0BF7D21B03FBE1
:105630000CF761EB07010CFB0EF7B0EB074072EBC8
:1056400017420CFB08F734BFA2EB0742B2EB07424C
:1056500061EB17414FEA8C5504EB9C244FEA91070C
:1056600006FB07FC4FEA1C4C0CFB0BF7B0EBC740EA
:1056700072EB573203FB0CF734BFA2EBC742B2EB1D
:10568000C74261EB57310CFB0EF7B0EBC70072EB72
:1056900057720CFB08F734BFA2EBC702B2EBC7028C
:1056A00061EB57714FEA816141EA92114FEA8262E0
:1056B00042EA90124FEA806015EB4C2544F1000459
:1056C0004FEAD13706FB07FC4FEA1C4C0CFB0BF7EB
:1056D000D21B03FB0CF761EB07010CFB0EF7B0EBE1
:1056E000074072EB17420CFB08F734BFA2EB0742EE
:1056F000B2EB074261EB17414FEA813141EA924137
:105700004FEA823242EA90424FEA80304FEA0C760A
:1057100015EB1C1544F1000448EA03434EEA0B481C
:105720004FF0000EB2EB080C71EB030724BF62468A
:1057300039464EEB0E0E4FF0000B00185241494116
:105740004BEB0B0BB2EB080C71EB03077BF1000B7F
:1057500024BF624639464EEB0E0E4FF0000B001888
:10576000524149414BEB0B0BB2EB080C71EB0307B9
:105770007BF1000B24BF624639464EEB0E0E51EA18
:10578000020718BF46F0010616EB0E7655F100022F
:1057900054F1000103D5BDE88901BDE80088BDE8EA
:1057A0008901BDE80048B619524141EB0101A3F15E
:1057B0000103704780807F7E7D7C7B7A7978777665
:1057C00076757473727171706F6E6E6D6C6C6B6ADE
:1057D0006A6968686766666564646363626161607C
:1057E000605F5F5E5E5D5D5C5C5B5B5A5A595958F9
:1057F0005857575656555555545453535252525163
:10580000515050504F4F4F4E4E4D4D4D4C4C4C4BB8
:105810004B4B4A4A4A4949494848484747474746FF
:10582000464645454544444444434343434242423B
:105830004241414110B546EA06464FEA164646EA5D
:1058400042564FEAD22242EA41524FEAD121A3F511
:105850007053A3F1010300F02FF820F0004000F096
:10586000004700F1020CBCF5006F01EB005011463F
:1058700040EA070000D210BDBAF1000F0AD01CB5F3
:1058800003B44FF004004FF004014FF000000FBCD0
:10589000BDE810404FF00001BBF1010FB9BF044853
:1058A0004FF0FF310348002140EA070010BD00BF60
:1058B000FFFFEF7F0000F07F9C46002B30D4770085
:1058C0002BD04FEA37071CB503B44FF010004FF050
:1058D0001001BAF1000F06D0BCF1000FDCBF40F0A0
:1058E000080040F008014FF000000FBCBDE8104078
:1058F0000BF1010BBBF1010F08BF5FEA170722BFD5
:1059000012F1010211F101014FF0004143F10003D6
:1059100000F0004043EA00007047F9D35708D0E791
:1059200046EA06464FEA164613F1400F1FDD13F113
:10593000200FDFBF16430A46002120335B42BED052
:10594000C3F1200746EA06464FEA164602FA07F771
:1059500046EA070622FA03F2C3F1200701FA07F725
:1059600042EA070221FA03F14FF00003A7E746EAF3
:10597000020646EA06464FEA164646EA0106BCBF5C
:1059800046EA0646360C4FF000034FF000024FF097
:10599000000194E72DE9804C70B49A46934691E853
:1059A000380007C831EA400C48BF34EA430C03D53D
:1059B000FFF7A4FDFFF780FFF0BCBDE8008C2DE9E8
:1059C000804C70B49A46934691E8380007C831EA93
:1059D000400C48BF34EA430C03D5FFF78FFDFFF7B7
:1059E00029FFF0BCBDE8008C2DE9804C70B49A46CC
:1059F000934691E8380007C810F0804F08BF13F0B5
:105A0000804F03D100F01AF8FFF756FFF0BCBDE855
:105A1000008C2DE9804C70B49A46934691E838008A
:105A200007C810F0804F08BF13F0804F03D100F07B
:105A300005F8FFF7FFFEF0BCBDE8008C20F07F47C3
:105A400023F07F4C80EA030000F0004007EB0C03DA
:105A5000A3F57C53A3F1FE0392F0000F00F0B38096
:105A600095F0000F00F077802DE901494FEA1140D1
:105A700021EA00484FEA144624EA064700FB06FCE8
:105A800008FB06F607FB08F818EB06484CEB164C2B
:105A900000FB07F718EB07484CEB17404FEA124B97
:105AA00022EA0B4E4FEA154625EA06470BFB06FC99
:105AB0000EFB06F607FB0EFE1EEB064E4CEB164CDD
:105AC0000BFB07F71EEB074E4CEB174B18EB0B08C5
:105AD00040F1000018EB0E0B58EB000840F10000FD
